{
  "_format": "hh-sol-artifact-1",
  "contractName": "SafePay",
  "sourceName": "contracts/SafePay.sol",
  "abi": [
    {
      "inputs": [],
      "stateMutability": "nonpayable",
      "type": "constructor"
    },
    {
      "anonymous": false,
      "inputs": [
        {
          "indexed": false,
          "internalType": "address",
          "name": "payer",
          "type": "address"
        },
        {
          "indexed": false,
          "internalType": "address",
          "name": "reciever",
          "type": "address"
        },
        {
          "indexed": false,
          "internalType": "address",
          "name": "token",
          "type": "address"
        },
        {
          "indexed": false,
          "internalType": "uint256",
          "name": "amount",
          "type": "uint256"
        },
        {
          "indexed": false,
          "internalType": "uint256",
          "name": "timePeriod",
          "type": "uint256"
        },
        {
          "indexed": false,
          "internalType": "string",
          "name": "name",
          "type": "string"
        }
      ],
      "name": "RequestSubscribtion",
      "type": "event"
    },
    {
      "anonymous": false,
      "inputs": [
        {
          "indexed": false,
          "internalType": "address",
          "name": "reciever",
          "type": "address"
        },
        {
          "indexed": false,
          "internalType": "uint256",
          "name": "timePeriod",
          "type": "uint256"
        },
        {
          "indexed": false,
          "internalType": "uint256",
          "name": "amount",
          "type": "uint256"
        },
        {
          "indexed": false,
          "internalType": "string",
          "name": "name",
          "type": "string"
        }
      ],
      "name": "Subscribe",
      "type": "event"
    },
    {
      "anonymous": false,
      "inputs": [
        {
          "indexed": false,
          "internalType": "address",
          "name": "reciever",
          "type": "address"
        },
        {
          "indexed": false,
          "internalType": "uint256",
          "name": "timePeriod",
          "type": "uint256"
        },
        {
          "indexed": false,
          "internalType": "uint256",
          "name": "amount",
          "type": "uint256"
        },
        {
          "indexed": false,
          "internalType": "string",
          "name": "name",
          "type": "string"
        }
      ],
      "name": "UnSubscribe",
      "type": "event"
    },
    {
      "inputs": [
        {
          "internalType": "bytes32",
          "name": "id",
          "type": "bytes32"
        }
      ],
      "name": "acceptRequest",
      "outputs": [],
      "stateMutability": "nonpayable",
      "type": "function"
    },
    {
      "inputs": [
        {
          "internalType": "bytes32",
          "name": "id",
          "type": "bytes32"
        }
      ],
      "name": "cancelRequest",
      "outputs": [],
      "stateMutability": "nonpayable",
      "type": "function"
    },
    {
      "inputs": [
        {
          "internalType": "bytes32",
          "name": "id",
          "type": "bytes32"
        }
      ],
      "name": "claim",
      "outputs": [],
      "stateMutability": "nonpayable",
      "type": "function"
    },
    {
      "inputs": [
        {
          "internalType": "address",
          "name": "payer",
          "type": "address"
        },
        {
          "internalType": "address",
          "name": "reciever",
          "type": "address"
        },
        {
          "internalType": "address",
          "name": "token",
          "type": "address"
        },
        {
          "internalType": "uint256",
          "name": "amount",
          "type": "uint256"
        },
        {
          "internalType": "uint256",
          "name": "timePeriod",
          "type": "uint256"
        },
        {
          "internalType": "string",
          "name": "message",
          "type": "string"
        }
      ],
      "name": "createRequest",
      "outputs": [
        {
          "internalType": "bytes32",
          "name": "id",
          "type": "bytes32"
        }
      ],
      "stateMutability": "nonpayable",
      "type": "function"
    },
    {
      "inputs": [
        {
          "internalType": "address",
          "name": "payer",
          "type": "address"
        },
        {
          "internalType": "address",
          "name": "reciever",
          "type": "address"
        },
        {
          "internalType": "address",
          "name": "token",
          "type": "address"
        },
        {
          "internalType": "uint256",
          "name": "amount",
          "type": "uint256"
        },
        {
          "internalType": "uint256",
          "name": "timePeriod",
          "type": "uint256"
        },
        {
          "internalType": "string",
          "name": "message",
          "type": "string"
        },
        {
          "internalType": "uint256",
          "name": "nonce",
          "type": "uint256"
        }
      ],
      "name": "getId",
      "outputs": [
        {
          "internalType": "bytes32",
          "name": "",
          "type": "bytes32"
        }
      ],
      "stateMutability": "pure",
      "type": "function"
    },
    {
      "inputs": [
        {
          "internalType": "bytes32",
          "name": "id",
          "type": "bytes32"
        }
      ],
      "name": "getPayments",
      "outputs": [
        {
          "components": [
            {
              "internalType": "address",
              "name": "payer",
              "type": "address"
            },
            {
              "internalType": "address",
              "name": "reciever",
              "type": "address"
            },
            {
              "internalType": "address",
              "name": "token",
              "type": "address"
            },
            {
              "internalType": "uint256",
              "name": "amount",
              "type": "uint256"
            },
            {
              "internalType": "uint256",
              "name": "timePeriod",
              "type": "uint256"
            },
            {
              "internalType": "string",
              "name": "message",
              "type": "string"
            },
            {
              "internalType": "uint256",
              "name": "nextPayment",
              "type": "uint256"
            },
            {
              "internalType": "bool",
              "name": "approved",
              "type": "bool"
            },
            {
              "internalType": "bool",
              "name": "isNew",
              "type": "bool"
            }
          ],
          "internalType": "struct SafePay.Payment",
          "name": "",
          "type": "tuple"
        }
      ],
      "stateMutability": "view",
      "type": "function"
    },
    {
      "inputs": [
        {
          "internalType": "address",
          "name": "_addr",
          "type": "address"
        }
      ],
      "name": "getPaymentsId",
      "outputs": [
        {
          "internalType": "bytes32[]",
          "name": "",
          "type": "bytes32[]"
        }
      ],
      "stateMutability": "view",
      "type": "function"
    },
    {
      "inputs": [
        {
          "internalType": "bytes32",
          "name": "id",
          "type": "bytes32"
        }
      ],
      "name": "isAuthorized",
      "outputs": [
        {
          "internalType": "bool",
          "name": "isAllowed",
          "type": "bool"
        }
      ],
      "stateMutability": "view",
      "type": "function"
    },
    {
      "inputs": [
        {
          "internalType": "bytes32",
          "name": "",
          "type": "bytes32"
        }
      ],
      "name": "paymentRequests",
      "outputs": [
        {
          "internalType": "address",
          "name": "payer",
          "type": "address"
        },
        {
          "internalType": "address",
          "name": "reciever",
          "type": "address"
        },
        {
          "internalType": "address",
          "name": "token",
          "type": "address"
        },
        {
          "internalType": "uint256",
          "name": "amount",
          "type": "uint256"
        },
        {
          "internalType": "uint256",
          "name": "timePeriod",
          "type": "uint256"
        },
        {
          "internalType": "string",
          "name": "message",
          "type": "string"
        },
        {
          "internalType": "uint256",
          "name": "nextPayment",
          "type": "uint256"
        },
        {
          "internalType": "bool",
          "name": "approved",
          "type": "bool"
        },
        {
          "internalType": "bool",
          "name": "isNew",
          "type": "bool"
        }
      ],
      "stateMutability": "view",
      "type": "function"
    },
    {
      "inputs": [
        {
          "internalType": "address",
          "name": "",
          "type": "address"
        },
        {
          "internalType": "uint256",
          "name": "",
          "type": "uint256"
        }
      ],
      "name": "safePayments",
      "outputs": [
        {
          "internalType": "bytes32",
          "name": "",
          "type": "bytes32"
        }
      ],
      "stateMutability": "view",
      "type": "function"
    }
  ],
  "bytecode": "0x608060405234801561001057600080fd5b50612575806100206000396000f3fe608060405234801561001057600080fd5b506004361061009e5760003560e01c806362f4ed901161006657806362f4ed9014610187578063a721cd30146101b7578063b00838a9146101d3578063bd66528a14610203578063fc4793aa1461021f5761009e565b80630d7a55ba146100a357806323f52b6d146100db5780633873da811461010b57806339755acb1461013b578063501255461461016b575b600080fd5b6100bd60048036038101906100b891906116cd565b61024f565b6040516100d299989796959493929190611808565b60405180910390f35b6100f560048036038101906100f09190611a29565b61039f565b6040516101029190611af6565b60405180910390f35b61012560048036038101906101209190611b11565b6103e1565b6040516101329190611af6565b60405180910390f35b61015560048036038101906101509190611bba565b610745565b6040516101629190611af6565b60405180910390f35b610185600480360381019061018091906116cd565b610776565b005b6101a1600480360381019061019c91906116cd565b610a73565b6040516101ae9190611bfa565b60405180910390f35b6101d160048036038101906101cc91906116cd565b610aa0565b005b6101ed60048036038101906101e891906116cd565b610d7e565b6040516101fa9190611d51565b60405180910390f35b61021d600480360381019061021891906116cd565b610f94565b005b61023960048036038101906102349190611d73565b6114b8565b6040516102469190611e5e565b60405180910390f35b60016020528060005260406000206000915090508060000160009054906101000a900473ffffffffffffffffffffffffffffffffffffffff16908060010160009054906101000a900473ffffffffffffffffffffffffffffffffffffffff16908060020160009054906101000a900473ffffffffffffffffffffffffffffffffffffffff16908060030154908060040154908060050180546102f090611eaf565b80601f016020809104026020016040519081016040528092919081815260200182805461031c90611eaf565b80156103695780601f1061033e57610100808354040283529160200191610369565b820191906000526020600020905b81548152906001019060200180831161034c57829003601f168201915b5050505050908060060154908060070160009054906101000a900460ff16908060070160019054906101000a900460ff16905089565b6000878787878787876040516020016103be9796959493929190611ee1565b604051602081830303815290604052805190602001209050979650505050505050565b6000806000808873ffffffffffffffffffffffffffffffffffffffff1673ffffffffffffffffffffffffffffffffffffffff1681526020019081526020016000208054905090506104378888888888888761039f565b915060006040518061012001604052808a73ffffffffffffffffffffffffffffffffffffffff1681526020018973ffffffffffffffffffffffffffffffffffffffff1681526020018873ffffffffffffffffffffffffffffffffffffffff168152602001878152602001868152602001858152602001600081526020016000151581526020016001151581525090506000808a73ffffffffffffffffffffffffffffffffffffffff1673ffffffffffffffffffffffffffffffffffffffff1681526020019081526020016000208390806001815401808255809150506001900390600052602060002001600090919091909150556000808973ffffffffffffffffffffffffffffffffffffffff1673ffffffffffffffffffffffffffffffffffffffff168152602001908152602001600020839080600181540180825580915050600190039060005260206000200160009091909190915055806001600085815260200190815260200160002060008201518160000160006101000a81548173ffffffffffffffffffffffffffffffffffffffff021916908373ffffffffffffffffffffffffffffffffffffffff16021790555060208201518160010160006101000a81548173ffffffffffffffffffffffffffffffffffffffff021916908373ffffffffffffffffffffffffffffffffffffffff16021790555060408201518160020160006101000a81548173ffffffffffffffffffffffffffffffffffffffff021916908373ffffffffffffffffffffffffffffffffffffffff160217905550606082015181600301556080820151816004015560a08201518160050190805190602001906106a992919061154e565b5060c0820151816006015560e08201518160070160006101000a81548160ff0219169083151502179055506101008201518160070160016101000a81548160ff0219169083151502179055509050507f743bd517fb1287d004be07f3ab1a9dec67bef59ffd6fd04495274fd2b4ef2b6689898989898960405161073196959493929190611f57565b60405180910390a150509695505050505050565b6000602052816000526040600020818154811061076157600080fd5b90600052602060002001600091509150505481565b600060016000838152602001908152602001600020604051806101200160405290816000820160009054906101000a900473ffffffffffffffffffffffffffffffffffffffff1673ffffffffffffffffffffffffffffffffffffffff1673ffffffffffffffffffffffffffffffffffffffff1681526020016001820160009054906101000a900473ffffffffffffffffffffffffffffffffffffffff1673ffffffffffffffffffffffffffffffffffffffff1673ffffffffffffffffffffffffffffffffffffffff1681526020016002820160009054906101000a900473ffffffffffffffffffffffffffffffffffffffff1673ffffffffffffffffffffffffffffffffffffffff1673ffffffffffffffffffffffffffffffffffffffff16815260200160038201548152602001600482015481526020016005820180546108bd90611eaf565b80601f01602080910402602001604051908101604052809291908181526020018280546108e990611eaf565b80156109365780601f1061090b57610100808354040283529160200191610936565b820191906000526020600020905b81548152906001019060200180831161091957829003601f168201915b50505050508152602001600682015481526020016007820160009054906101000a900460ff161515151581526020016007820160019054906101000a900460ff16151515158152505090503373ffffffffffffffffffffffffffffffffffffffff16816000015173ffffffffffffffffffffffffffffffffffffffff16146109f3576040517f08c379a00000000000000000000000000000000000000000000000000000000081526004016109ea90612031565b60405180910390fd5b60006001600084815260200190815260200160002060070160006101000a81548160ff0219169083151502179055507fb3c35bd6b324d8648d111bb8bd70f40710d0f3a53436c51203076dd46c7235318160200151826080015183606001518460a00151604051610a679493929190612051565b60405180910390a15050565b60006001600083815260200190815260200160002060070160009054906101000a900460ff169050919050565b600060016000838152602001908152602001600020604051806101200160405290816000820160009054906101000a900473ffffffffffffffffffffffffffffffffffffffff1673ffffffffffffffffffffffffffffffffffffffff1673ffffffffffffffffffffffffffffffffffffffff1681526020016001820160009054906101000a900473ffffffffffffffffffffffffffffffffffffffff1673ffffffffffffffffffffffffffffffffffffffff1673ffffffffffffffffffffffffffffffffffffffff1681526020016002820160009054906101000a900473ffffffffffffffffffffffffffffffffffffffff1673ffffffffffffffffffffffffffffffffffffffff1673ffffffffffffffffffffffffffffffffffffffff1681526020016003820154815260200160048201548152602001600582018054610be790611eaf565b80601f0160208091040260200160405190810160405280929190818152602001828054610c1390611eaf565b8015610c605780601f10610c3557610100808354040283529160200191610c60565b820191906000526020600020905b815481529060010190602001808311610c4357829003601f168201915b50505050508152602001600682015481526020016007820160009054906101000a900460ff161515151581526020016007820160019054906101000a900460ff16151515158152505090503373ffffffffffffffffffffffffffffffffffffffff16816000015173ffffffffffffffffffffffffffffffffffffffff1614610d1d576040517f08c379a0000000000000000000000000000000000000000000000000000000008152600401610d1490612031565b60405180910390fd5b600180600084815260200190815260200160002060070160006101000a81548160ff02191690831515021790555060006001600084815260200190815260200160002060070160016101000a81548160ff0219169083151502179055505050565b610d866115d4565b60016000838152602001908152602001600020604051806101200160405290816000820160009054906101000a900473ffffffffffffffffffffffffffffffffffffffff1673ffffffffffffffffffffffffffffffffffffffff1673ffffffffffffffffffffffffffffffffffffffff1681526020016001820160009054906101000a900473ffffffffffffffffffffffffffffffffffffffff1673ffffffffffffffffffffffffffffffffffffffff1673ffffffffffffffffffffffffffffffffffffffff1681526020016002820160009054906101000a900473ffffffffffffffffffffffffffffffffffffffff1673ffffffffffffffffffffffffffffffffffffffff1673ffffffffffffffffffffffffffffffffffffffff1681526020016003820154815260200160048201548152602001600582018054610ecb90611eaf565b80601f0160208091040260200160405190810160405280929190818152602001828054610ef790611eaf565b8015610f445780601f10610f1957610100808354040283529160200191610f44565b820191906000526020600020905b815481529060010190602001808311610f2757829003601f168201915b50505050508152602001600682015481526020016007820160009054906101000a900460ff161515151581526020016007820160019054906101000a900460ff1615151515815250509050919050565b600060016000838152602001908152602001600020604051806101200160405290816000820160009054906101000a900473ffffffffffffffffffffffffffffffffffffffff1673ffffffffffffffffffffffffffffffffffffffff1673ffffffffffffffffffffffffffffffffffffffff1681526020016001820160009054906101000a900473ffffffffffffffffffffffffffffffffffffffff1673ffffffffffffffffffffffffffffffffffffffff1673ffffffffffffffffffffffffffffffffffffffff1681526020016002820160009054906101000a900473ffffffffffffffffffffffffffffffffffffffff1673ffffffffffffffffffffffffffffffffffffffff1673ffffffffffffffffffffffffffffffffffffffff16815260200160038201548152602001600482015481526020016005820180546110db90611eaf565b80601f016020809104026020016040519081016040528092919081815260200182805461110790611eaf565b80156111545780601f1061112957610100808354040283529160200191611154565b820191906000526020600020905b81548152906001019060200180831161113757829003601f168201915b50505050508152602001600682015481526020016007820160009054906101000a900460ff161515151581526020016007820160019054906101000a900460ff16151515158152505090506111a882610a73565b6111e7576040517f08c379a00000000000000000000000000000000000000000000000000000000081526004016111de906120e9565b60405180910390fd5b428160c00151111561122e576040517f08c379a00000000000000000000000000000000000000000000000000000000081526004016112259061217b565b60405180910390fd5b600073ffffffffffffffffffffffffffffffffffffffff16816040015173ffffffffffffffffffffffffffffffffffffffff16141561130b57806000015173ffffffffffffffffffffffffffffffffffffffff16635229073f82602001516000806040518463ffffffff1660e01b81526004016112ad9392919061228e565b600060405180830381600087803b1580156112c757600080fd5b505af11580156112db573d6000803e3d6000fd5b505050506040513d6000823e3d601f19601f8201168201806040525081019061130491906123a5565b5050611446565b806000015173ffffffffffffffffffffffffffffffffffffffff16635229073f826040015160007fa9059cbb2ab09eb219583f4a59a5d0623ade346d962bcd4e46b11da047c9049b8560200151866060015160405160240161136e929190612401565b604051602081830303815290604052907bffffffffffffffffffffffffffffffffffffffffffffffffffffffff19166020820180517bffffffffffffffffffffffffffffffffffffffffffffffffffffffff838183161783525050505060006040518563ffffffff1660e01b81526004016113ec949392919061246e565b600060405180830381600087803b15801561140657600080fd5b505af115801561141a573d6000803e3d6000fd5b505050506040513d6000823e3d601f19601f8201168201806040525081019061144391906123a5565b50505b806080015160016000848152602001908152602001600020600601600082825461147091906124e9565b925050819055506000816080015114156114b45760006001600084815260200190815260200160002060070160006101000a81548160ff0219169083151502179055505b5050565b60606000808373ffffffffffffffffffffffffffffffffffffffff1673ffffffffffffffffffffffffffffffffffffffff16815260200190815260200160002080548060200260200160405190810160405280929190818152602001828054801561154257602002820191906000526020600020905b81548152602001906001019080831161152e575b50505050509050919050565b82805461155a90611eaf565b90600052602060002090601f01602090048101928261157c57600085556115c3565b82601f1061159557805160ff19168380011785556115c3565b828001600101855582156115c3579182015b828111156115c25782518255916020019190600101906115a7565b5b5090506115d09190611666565b5090565b604051806101200160405280600073ffffffffffffffffffffffffffffffffffffffff168152602001600073ffffffffffffffffffffffffffffffffffffffff168152602001600073ffffffffffffffffffffffffffffffffffffffff168152602001600081526020016000815260200160608152602001600081526020016000151581526020016000151581525090565b5b8082111561167f576000816000905550600101611667565b5090565b6000604051905090565b600080fd5b600080fd5b6000819050919050565b6116aa81611697565b81146116b557600080fd5b50565b6000813590506116c7816116a1565b92915050565b6000602082840312156116e3576116e261168d565b5b60006116f1848285016116b8565b91505092915050565b600073ffffffffffffffffffffffffffffffffffffffff82169050919050565b6000611725826116fa565b9050919050565b6117358161171a565b82525050565b6000819050919050565b61174e8161173b565b82525050565b600081519050919050565b600082825260208201905092915050565b60005b8381101561178e578082015181840152602081019050611773565b8381111561179d576000848401525b50505050565b6000601f19601f8301169050919050565b60006117bf82611754565b6117c9818561175f565b93506117d9818560208601611770565b6117e2816117a3565b840191505092915050565b60008115159050919050565b611802816117ed565b82525050565b60006101208201905061181e600083018c61172c565b61182b602083018b61172c565b611838604083018a61172c565b6118456060830189611745565b6118526080830188611745565b81810360a083015261186481876117b4565b905061187360c0830186611745565b61188060e08301856117f9565b61188e6101008301846117f9565b9a9950505050505050505050565b6118a58161171a565b81146118b057600080fd5b50565b6000813590506118c28161189c565b92915050565b6118d18161173b565b81146118dc57600080fd5b50565b6000813590506118ee816118c8565b92915050565b600080fd5b600080fd5b7f4e487b7100000000000000000000000000000000000000000000000000000000600052604160045260246000fd5b611936826117a3565b810181811067ffffffffffffffff82111715611955576119546118fe565b5b80604052505050565b6000611968611683565b9050611974828261192d565b919050565b600067ffffffffffffffff821115611994576119936118fe565b5b61199d826117a3565b9050602081019050919050565b82818337600083830152505050565b60006119cc6119c784611979565b61195e565b9050828152602081018484840111156119e8576119e76118f9565b5b6119f38482856119aa565b509392505050565b600082601f830112611a1057611a0f6118f4565b5b8135611a208482602086016119b9565b91505092915050565b600080600080600080600060e0888a031215611a4857611a4761168d565b5b6000611a568a828b016118b3565b9750506020611a678a828b016118b3565b9650506040611a788a828b016118b3565b9550506060611a898a828b016118df565b9450506080611a9a8a828b016118df565b93505060a088013567ffffffffffffffff811115611abb57611aba611692565b5b611ac78a828b016119fb565b92505060c0611ad88a828b016118df565b91505092959891949750929550565b611af081611697565b82525050565b6000602082019050611b0b6000830184611ae7565b92915050565b60008060008060008060c08789031215611b2e57611b2d61168d565b5b6000611b3c89828a016118b3565b9650506020611b4d89828a016118b3565b9550506040611b5e89828a016118b3565b9450506060611b6f89828a016118df565b9350506080611b8089828a016118df565b92505060a087013567ffffffffffffffff811115611ba157611ba0611692565b5b611bad89828a016119fb565b9150509295509295509295565b60008060408385031215611bd157611bd061168d565b5b6000611bdf858286016118b3565b9250506020611bf0858286016118df565b9150509250929050565b6000602082019050611c0f60008301846117f9565b92915050565b611c1e8161171a565b82525050565b611c2d8161173b565b82525050565b600082825260208201905092915050565b6000611c4f82611754565b611c598185611c33565b9350611c69818560208601611770565b611c72816117a3565b840191505092915050565b611c86816117ed565b82525050565b600061012083016000830151611ca56000860182611c15565b506020830151611cb86020860182611c15565b506040830151611ccb6040860182611c15565b506060830151611cde6060860182611c24565b506080830151611cf16080860182611c24565b5060a083015184820360a0860152611d098282611c44565b91505060c0830151611d1e60c0860182611c24565b5060e0830151611d3160e0860182611c7d565b50610100830151611d46610100860182611c7d565b508091505092915050565b60006020820190508181036000830152611d6b8184611c8c565b905092915050565b600060208284031215611d8957611d8861168d565b5b6000611d97848285016118b3565b91505092915050565b600081519050919050565b600082825260208201905092915050565b6000819050602082019050919050565b611dd581611697565b82525050565b6000611de78383611dcc565b60208301905092915050565b6000602082019050919050565b6000611e0b82611da0565b611e158185611dab565b9350611e2083611dbc565b8060005b83811015611e51578151611e388882611ddb565b9750611e4383611df3565b925050600181019050611e24565b5085935050505092915050565b60006020820190508181036000830152611e788184611e00565b905092915050565b7f4e487b7100000000000000000000000000000000000000000000000000000000600052602260045260246000fd5b60006002820490506001821680611ec757607f821691505b60208210811415611edb57611eda611e80565b5b50919050565b600060e082019050611ef6600083018a61172c565b611f03602083018961172c565b611f10604083018861172c565b611f1d6060830187611745565b611f2a6080830186611745565b81810360a0830152611f3c81856117b4565b9050611f4b60c0830184611745565b98975050505050505050565b600060c082019050611f6c600083018961172c565b611f79602083018861172c565b611f86604083018761172c565b611f936060830186611745565b611fa06080830185611745565b81810360a0830152611fb281846117b4565b9050979650505050505050565b7f4f6e6c792050617965722063616e20417574686f72697a65205472616e73616360008201527f74696f6e00000000000000000000000000000000000000000000000000000000602082015250565b600061201b60248361175f565b915061202682611fbf565b604082019050919050565b6000602082019050818103600083015261204a8161200e565b9050919050565b6000608082019050612066600083018761172c565b6120736020830186611745565b6120806040830185611745565b818103606083015261209281846117b4565b905095945050505050565b7f4e6f7420417574686f72697a6564000000000000000000000000000000000000600082015250565b60006120d3600e8361175f565b91506120de8261209d565b602082019050919050565b60006020820190508181036000830152612102816120c6565b9050919050565b7f5468657265206973207374696c6c2074696d652072656d61696e696e6720666f60008201527f722074686520636c61696d000000000000000000000000000000000000000000602082015250565b6000612165602b8361175f565b915061217082612109565b604082019050919050565b6000602082019050818103600083015261219481612158565b9050919050565b6000819050919050565b6000819050919050565b60006121ca6121c56121c08461219b565b6121a5565b61173b565b9050919050565b6121da816121af565b82525050565b600082825260208201905092915050565b50565b60006122016000836121e0565b915061220c826121f1565b600082019050919050565b7f4e487b7100000000000000000000000000000000000000000000000000000000600052602160045260246000fd5b6002811061225757612256612217565b5b50565b600081905061226882612246565b919050565b60006122788261225a565b9050919050565b6122888161226d565b82525050565b60006080820190506122a3600083018661172c565b6122b060208301856121d1565b81810360408301526122c1816121f4565b90506122d0606083018461227f565b949350505050565b6122e1816117ed565b81146122ec57600080fd5b50565b6000815190506122fe816122d8565b92915050565b600067ffffffffffffffff82111561231f5761231e6118fe565b5b612328826117a3565b9050602081019050919050565b600061234861234384612304565b61195e565b905082815260208101848484011115612364576123636118f9565b5b61236f848285611770565b509392505050565b600082601f83011261238c5761238b6118f4565b5b815161239c848260208601612335565b91505092915050565b600080604083850312156123bc576123bb61168d565b5b60006123ca858286016122ef565b925050602083015167ffffffffffffffff8111156123eb576123ea611692565b5b6123f785828601612377565b9150509250929050565b6000604082019050612416600083018561172c565b6124236020830184611745565b9392505050565b600081519050919050565b60006124408261242a565b61244a81856121e0565b935061245a818560208601611770565b612463816117a3565b840191505092915050565b6000608082019050612483600083018761172c565b61249060208301866121d1565b81810360408301526124a28185612435565b90506124b1606083018461227f565b95945050505050565b7f4e487b7100000000000000000000000000000000000000000000000000000000600052601160045260246000fd5b60006124f48261173b565b91506124ff8361173b565b9250827fffffffffffffffffffffffffffffffffffffffffffffffffffffffffffffffff03821115612534576125336124ba565b5b82820190509291505056fea264697066735822122099ea6cdeff5988ec0a39caf315faddabad11a198d6f745c141a651f924b1983b64736f6c63430008090033",
  "linkReferences": {},
  "deployedLinkReferences": {}
}